{
  "contractName": "TxnBundler",
  "abi": [
    {
      "anonymous": false,
      "inputs": [
        {
          "indexed": false,
          "internalType": "uint256",
          "name": "totalAmount",
          "type": "uint256"
        },
        {
          "indexed": false,
          "internalType": "uint256",
          "name": "txnCount",
          "type": "uint256"
        }
      ],
      "name": "BundleExecuted",
      "type": "event"
    },
    {
      "anonymous": false,
      "inputs": [
        {
          "indexed": false,
          "internalType": "address",
          "name": "from",
          "type": "address"
        },
        {
          "indexed": false,
          "internalType": "address",
          "name": "to",
          "type": "address"
        },
        {
          "indexed": false,
          "internalType": "uint256",
          "name": "amount",
          "type": "uint256"
        }
      ],
      "name": "TransactionBundled",
      "type": "event"
    },
    {
      "inputs": [
        {
          "internalType": "uint256",
          "name": "",
          "type": "uint256"
        }
      ],
      "name": "transactions",
      "outputs": [
        {
          "internalType": "address",
          "name": "from",
          "type": "address"
        },
        {
          "internalType": "address",
          "name": "to",
          "type": "address"
        },
        {
          "internalType": "uint256",
          "name": "amount",
          "type": "uint256"
        }
      ],
      "stateMutability": "view",
      "type": "function"
    },
    {
      "inputs": [
        {
          "internalType": "address",
          "name": "_to",
          "type": "address"
        }
      ],
      "name": "bundleTransaction",
      "outputs": [],
      "stateMutability": "payable",
      "type": "function"
    },
    {
      "inputs": [],
      "name": "executeBundle",
      "outputs": [],
      "stateMutability": "nonpayable",
      "type": "function"
    }
  ],
  "bytecode": "0x608060405234801561001057600080fd5b50610802806100206000396000f3fe6080604052600436106100345760003560e01c8063195e1f4a146100395780638b15e49b146100555780639ace38c21461006c575b600080fd5b610053600480360381019061004e9190610553565b6100ab565b005b34801561006157600080fd5b5061006a610238565b005b34801561007857600080fd5b50610093600480360381019061008e919061057c565b61041e565b6040516100a293929190610603565b60405180910390f35b600034116100ee576040517f08c379a00000000000000000000000000000000000000000000000000000000081526004016100e59061063a565b60405180910390fd5b600060405180606001604052803373ffffffffffffffffffffffffffffffffffffffff1681526020018373ffffffffffffffffffffffffffffffffffffffff16815260200134815250908060018154018082558091505060019003906000526020600020906003020160009091909190915060008201518160000160006101000a81548173ffffffffffffffffffffffffffffffffffffffff021916908373ffffffffffffffffffffffffffffffffffffffff16021790555060208201518160010160006101000a81548173ffffffffffffffffffffffffffffffffffffffff021916908373ffffffffffffffffffffffffffffffffffffffff1602179055506040820151816002015550507f9ea9b3b9937b9455fe2c03391e121f89bdcf8a02d569abade328bb8f6f0be3db33823460405161022d93929190610603565b60405180910390a150565b6000808080549050905060005b6000805490508110156103d357600080828154811061028d577f4e487b7100000000000000000000000000000000000000000000000000000000600052603260045260246000fd5b90600052602060002090600302016040518060600160405290816000820160009054906101000a900473ffffffffffffffffffffffffffffffffffffffff1673ffffffffffffffffffffffffffffffffffffffff1673ffffffffffffffffffffffffffffffffffffffff1681526020016001820160009054906101000a900473ffffffffffffffffffffffffffffffffffffffff1673ffffffffffffffffffffffffffffffffffffffff1673ffffffffffffffffffffffffffffffffffffffff168152602001600282015481525050905080604001518461036e9190610694565b9350806020015173ffffffffffffffffffffffffffffffffffffffff166108fc82604001519081150290604051600060405180830381858888f193505050501580156103be573d6000803e3d6000fd5b505080806103cb90610726565b915050610245565b506000806103e19190610498565b7fa7439d13b9d46e243498cab35f584c1d1a917d24ed8d24267708a9bb9453676e828260405161041292919061065a565b60405180910390a15050565b6000818154811061042e57600080fd5b90600052602060002090600302016000915090508060000160009054906101000a900473ffffffffffffffffffffffffffffffffffffffff16908060010160009054906101000a900473ffffffffffffffffffffffffffffffffffffffff16908060020154905083565b50805460008255600302906000526020600020908101906104b991906104bc565b50565b5b8082111561052557600080820160006101000a81549073ffffffffffffffffffffffffffffffffffffffff02191690556001820160006101000a81549073ffffffffffffffffffffffffffffffffffffffff02191690556002820160009055506003016104bd565b5090565b6000813590506105388161079e565b92915050565b60008135905061054d816107b5565b92915050565b60006020828403121561056557600080fd5b600061057384828501610529565b91505092915050565b60006020828403121561058e57600080fd5b600061059c8482850161053e565b91505092915050565b6105ae816106ea565b82525050565b60006105c1601d83610683565b91507f416d6f756e74206d7573742062652067726561746572207468616e20300000006000830152602082019050919050565b6105fd8161071c565b82525050565b600060608201905061061860008301866105a5565b61062560208301856105a5565b61063260408301846105f4565b949350505050565b60006020820190508181036000830152610653816105b4565b9050919050565b600060408201905061066f60008301856105f4565b61067c60208301846105f4565b9392505050565b600082825260208201905092915050565b600061069f8261071c565b91506106aa8361071c565b9250827fffffffffffffffffffffffffffffffffffffffffffffffffffffffffffffffff038211156106df576106de61076f565b5b828201905092915050565b60006106f5826106fc565b9050919050565b600073ffffffffffffffffffffffffffffffffffffffff82169050919050565b6000819050919050565b60006107318261071c565b91507fffffffffffffffffffffffffffffffffffffffffffffffffffffffffffffffff8214156107645761076361076f565b5b600182019050919050565b7f4e487b7100000000000000000000000000000000000000000000000000000000600052601160045260246000fd5b6107a7816106ea565b81146107b257600080fd5b50565b6107be8161071c565b81146107c957600080fd5b5056fea264697066735822122068ad084dac25d9ced7a988e91ee956495ce9c313135734539c71122e58d0076064736f6c63430008000033",
  "immutableReferences": {},
  "source": "// SPDX-License-Identifier: MIT\r\npragma solidity ^0.8.0;\r\n\r\ncontract TxnBundler {\r\n    struct Transaction {\r\n        address from;\r\n        address to;\r\n        uint amount;\r\n    }\r\n\r\n    Transaction[] public transactions;\r\n\r\n    event TransactionBundled(address from, address to, uint amount);\r\n    event BundleExecuted(uint totalAmount, uint txnCount);\r\n\r\n    function bundleTransaction(address _to) external payable {\r\n        require(msg.value > 0, \"Amount must be greater than 0\");\r\n        \r\n        transactions.push(Transaction({\r\n            from: msg.sender,\r\n            to: _to,\r\n            amount: msg.value\r\n        }));\r\n\r\n        emit TransactionBundled(msg.sender, _to, msg.value);\r\n    }\r\n\r\n    function executeBundle() external {\r\n        uint totalAmount = 0;\r\n        uint txnCount = transactions.length;\r\n\r\n        for (uint i = 0; i < transactions.length; i++) {\r\n            Transaction memory txn = transactions[i];\r\n            totalAmount += txn.amount;\r\n            payable(txn.to).transfer(txn.amount);\r\n        }\r\n\r\n        delete transactions;\r\n\r\n        emit BundleExecuted(totalAmount, txnCount);\r\n    }\r\n}\r\n",
  "sourcePath": "C:\\Users\\USER\\Desktop\\Bundling script\\contracts\\TnxBundler.sol",
  "compiler": {
    "name": "solc",
    "version": "0.8.0+commit.c7dfd78e.Emscripten.clang"
  },
  "schemaVersion": "3.4.13",
  "updatedAt": "2024-07-23T08:55:08.936Z",
  "devdoc": {
    "kind": "dev",
    "methods": {},
    "version": 1
  },
  "userdoc": {
    "kind": "user",
    "methods": {},
    "version": 1
  }
}